{
  "contractName": "Fund",
  "abi": [
    {
      "inputs": [],
      "payable": false,
      "stateMutability": "nonpayable",
      "type": "constructor"
    },
    {
      "constant": false,
      "inputs": [
        {
          "name": "ipfsHash",
          "type": "string"
        }
      ],
      "name": "setHash",
      "outputs": [],
      "payable": false,
      "stateMutability": "nonpayable",
      "type": "function"
    },
    {
      "constant": true,
      "inputs": [
        {
          "name": "addr",
          "type": "address"
        }
      ],
      "name": "getHash",
      "outputs": [
        {
          "name": "",
          "type": "string"
        }
      ],
      "payable": false,
      "stateMutability": "view",
      "type": "function"
    },
    {
      "constant": false,
      "inputs": [
        {
          "name": "addr",
          "type": "address"
        }
      ],
      "name": "sendToPhoto",
      "outputs": [],
      "payable": true,
      "stateMutability": "payable",
      "type": "function"
    }
  ],
  "bytecode": "0x608060405234801561001057600080fd5b50610408806100206000396000f300608060405260043610610057576000357c0100000000000000000000000000000000000000000000000000000000900463ffffffff1680631da0b8fc1461005c5780631ed83fd41461011857806364f84c8514610181575b600080fd5b34801561006857600080fd5b5061009d600480360381019080803573ffffffffffffffffffffffffffffffffffffffff1690602001909291905050506101b7565b6040518080602001828103825283818151815260200191508051906020019080838360005b838110156100dd5780820151818401526020810190506100c2565b50505050905090810190601f16801561010a5780820380516001836020036101000a031916815260200191505b509250505060405180910390f35b34801561012457600080fd5b5061017f600480360381019080803590602001908201803590602001908080601f0160208091040260200160405190810160405280939291908181526020018383808284378201915050505050509192919290505050610297565b005b6101b5600480360381019080803573ffffffffffffffffffffffffffffffffffffffff1690602001909291905050506102ed565b005b60606000808373ffffffffffffffffffffffffffffffffffffffff1673ffffffffffffffffffffffffffffffffffffffff1681526020019081526020016000208054600181600116156101000203166002900480601f01602080910402602001604051908101604052809291908181526020018280546001816001161561010002031660029004801561028b5780601f106102605761010080835404028352916020019161028b565b820191906000526020600020905b81548152906001019060200180831161026e57829003601f168201915b50505050509050919050565b806000803373ffffffffffffffffffffffffffffffffffffffff1673ffffffffffffffffffffffffffffffffffffffff16815260200190815260200160002090805190602001906102e9929190610337565b5050565b8073ffffffffffffffffffffffffffffffffffffffff166108fc349081150290604051600060405180830381858888f19350505050158015610333573d6000803e3d6000fd5b5050565b828054600181600116156101000203166002900490600052602060002090601f016020900481019282601f1061037857805160ff19168380011785556103a6565b828001600101855582156103a6579182015b828111156103a557825182559160200191906001019061038a565b5b5090506103b391906103b7565b5090565b6103d991905b808211156103d55760008160009055506001016103bd565b5090565b905600a165627a7a7230582086488c3b5cf89d2b9ef680a9e5b01f9b9de11609c71e8593704e7ba2a5038b820029",
  "source": "pragma solidity ^0.4.18;\n\ncontract Fund {\n  constructor() {\n    /* owner = msg.sender; */\n  }\n\n  mapping (address => string) ipfsHashes;\n\n  function setHash(string ipfsHash) public {\n    ipfsHashes[msg.sender] = ipfsHash;\n  }\n\n  function getHash(address addr) public view returns(string) {\n    return ipfsHashes[addr];\n  }\n\n  /** @dev Stores a ipfsHash of the users fund in a struct\n  * @param addr address of the fund the user wants to send funds to\n  */\n  function sendToPhoto(address addr) public payable {\n    addr.transfer(msg.value);\n  }\n}\n",
  "sourcePath": "/Users/randallkanna/Documents/code/eth/ethos_social/contracts/Fund.sol",
  "compiler": {
    "name": "solc",
    "version": "0.4.24+commit.e67f0147.Emscripten.clang"
  },
  "schemaVersion": "2.0.1",
  "updatedAt": "2018-09-18T05:08:28.623Z"
}