{
  "contractName": "Fund",
  "abi": [
    {
      "inputs": [],
      "payable": false,
      "stateMutability": "nonpayable",
      "type": "constructor"
    },
    {
      "constant": false,
      "inputs": [
        {
          "name": "addr",
          "type": "address"
        }
      ],
      "name": "sendToPhoto",
      "outputs": [],
      "payable": true,
      "stateMutability": "payable",
      "type": "function"
    }
  ],
  "bytecode": "0x608060405234801561001057600080fd5b5060ed8061001f6000396000f300608060405260043610603f576000357c0100000000000000000000000000000000000000000000000000000000900463ffffffff16806364f84c85146044575b600080fd5b6076600480360381019080803573ffffffffffffffffffffffffffffffffffffffff1690602001909291905050506078565b005b8073ffffffffffffffffffffffffffffffffffffffff166108fc349081150290604051600060405180830381858888f1935050505015801560bd573d6000803e3d6000fd5b50505600a165627a7a72305820273106cddae0c4640145faeb11405db12526613f898b713e9244d05f7547b9190029",
  "source": "pragma solidity ^0.4.18;\n\ncontract Fund {\n  constructor() {\n    /* owner = msg.sender; */\n  }\n\n  /** @dev Stores a ipfsHash of the users fund in a struct\n  * @param addr address of the fund the user wants to send funds to\n  */\n  function sendToPhoto(address addr) public payable {\n    addr.transfer(msg.value);\n  }\n}\n",
  "sourcePath": "/Users/randallkanna/Documents/code/eth/ethos_social/contracts/Fund.sol",
  "compiler": {
    "name": "solc",
    "version": "0.4.24+commit.e67f0147.Emscripten.clang"
  },
  "schemaVersion": "2.0.1",
  "updatedAt": "2018-09-15T01:44:48.257Z"
}